{"abi":[{"type":"constructor","inputs":[{"name":"_initialOwner","type":"address","internalType":"address"},{"name":"_messageTransmitter","type":"address","internalType":"address"},{"name":"_token","type":"address","internalType":"address"},{"name":"_mikiReceiver","type":"address","internalType":"address"}],"stateMutability":"nonpayable"},{"type":"function","name":"cctpReceive","inputs":[{"name":"_message","type":"bytes","internalType":"bytes"},{"name":"_attestation","type":"bytes","internalType":"bytes"},{"name":"_appReceiver","type":"address","internalType":"address"},{"name":"_srcChainId","type":"uint256","internalType":"uint256"},{"name":"_srcAddress","type":"address","internalType":"address"},{"name":"_mikiMessage","type":"bytes","internalType":"bytes"}],"outputs":[],"stateMutability":"nonpayable"},{"type":"function","name":"messageTransmitter","inputs":[],"outputs":[{"name":"","type":"address","internalType":"contract IMessageTransmitter"}],"stateMutability":"view"},{"type":"function","name":"mikiReceiver","inputs":[],"outputs":[{"name":"","type":"address","internalType":"contract IMikiReceiver"}],"stateMutability":"view"},{"type":"function","name":"owner","inputs":[],"outputs":[{"name":"","type":"address","internalType":"address"}],"stateMutability":"view"},{"type":"function","name":"renounceOwnership","inputs":[],"outputs":[],"stateMutability":"nonpayable"},{"type":"function","name":"token","inputs":[],"outputs":[{"name":"","type":"address","internalType":"contract IERC20"}],"stateMutability":"view"},{"type":"function","name":"transferOwnership","inputs":[{"name":"newOwner","type":"address","internalType":"address"}],"outputs":[],"stateMutability":"nonpayable"},{"type":"event","name":"FailedMessageReceived","inputs":[{"name":"appReceiver","type":"address","indexed":false,"internalType":"address"},{"name":"srcChainId","type":"uint256","indexed":false,"internalType":"uint256"},{"name":"srcAddress","type":"address","indexed":false,"internalType":"address"},{"name":"mikiMessage","type":"bytes","indexed":false,"internalType":"bytes"},{"name":"reason","type":"string","indexed":false,"internalType":"string"}],"anonymous":false},{"type":"event","name":"MessageReceived","inputs":[{"name":"message","type":"bytes","indexed":false,"internalType":"bytes"},{"name":"attestation","type":"bytes","indexed":false,"internalType":"bytes"},{"name":"appReceiver","type":"address","indexed":false,"internalType":"address"},{"name":"srcChainId","type":"uint256","indexed":false,"internalType":"uint256"},{"name":"srcAddress","type":"address","indexed":false,"internalType":"address"},{"name":"mikiMessage","type":"bytes","indexed":false,"internalType":"bytes"}],"anonymous":false},{"type":"event","name":"OwnershipTransferred","inputs":[{"name":"previousOwner","type":"address","indexed":true,"internalType":"address"},{"name":"newOwner","type":"address","indexed":true,"internalType":"address"}],"anonymous":false},{"type":"error","name":"OwnableInvalidOwner","inputs":[{"name":"owner","type":"address","internalType":"address"}]},{"type":"error","name":"OwnableUnauthorizedAccount","inputs":[{"name":"account","type":"address","internalType":"address"}]}],"bytecode":{"object":"0x60e03461013157601f610b6438819003918201601f19168301916001600160401b0383118484101761013657808492608094604052833981010312610131576100478161014c565b6100536020830161014c565b9161006c60606100656040840161014c565b920161014c565b6001600160a01b039283169390841561011857600080546001600160a01b0319811687178255604051968694859390928416907f8be0079c531659141344cd1fd0a4f28419497f9722a3daafe3b4186f6b6457e09080a3166080521660c0521660a052610a03908161016182396080518181816102940152610764015260a051818181609a015281816102f70152610393015260c05181818161032b015281816103e201526108320152f35b604051631e4fbdf760e01b815260006004820152602490fd5b600080fd5b634e487b7160e01b600052604160045260246000fd5b51906001600160a01b03821682036101315756fe608080604052600436101561001357600080fd5b600090813560e01c9081630c68d0ef1461080657508063715018a6146107885780637b04c181146107375780638da5cb5b1461070457806399903c831461018d578063f2fde38b146100c15763fc0c546a1461006e57600080fd5b346100be57806003193601126100be57602060405173ffffffffffffffffffffffffffffffffffffffff7f0000000000000000000000000000000000000000000000000000000000000000168152f35b80fd5b50346100be5760206003193601126100be5760043573ffffffffffffffffffffffffffffffffffffffff808216809203610188576100fd6109a5565b811561015757600054827fffffffffffffffffffffffff0000000000000000000000000000000000000000821617600055167f8be0079c531659141344cd1fd0a4f28419497f9722a3daafe3b4186f6b6457e0600080a380f35b602483604051907f1e4fbdf70000000000000000000000000000000000000000000000000000000082526004820152fd5b600080fd5b50346100be5760031960c0813601126107005760043567ffffffffffffffff81116106fc576101c0903690600401610856565b909160243567ffffffffffffffff81116106f8576101e2903690600401610856565b90916044359373ffffffffffffffffffffffffffffffffffffffff9384861686036106f4576084359385851685036106f05760a4359767ffffffffffffffff89116106e45761028f61023a60209a3690600401610856565b9a90968c60405180809581947f57ecfd280000000000000000000000000000000000000000000000000000000083526040600484015261027e604484018d8b6108f4565b90838203016024840152898b6108f4565b03918c7f0000000000000000000000000000000000000000000000000000000000000000165af180156106a9576106b4575b506040517f70a082310000000000000000000000000000000000000000000000000000000081523060048201526020816024818b7f0000000000000000000000000000000000000000000000000000000000000000165afa9081156106a9578b91610677575b50877f0000000000000000000000000000000000000000000000000000000000000000163b1561067357604051907f78c10d3500000000000000000000000000000000000000000000000000000000825260643560048301528888166024830152888a166044830152887f0000000000000000000000000000000000000000000000000000000000000000166064830152608482015260e060a48201528a81806103d68d60e48301908b6108f4565b8360c48301520381838c7f0000000000000000000000000000000000000000000000000000000000000000165af1908161062a575b506105ac575050505060018660033d1161059c575b6308c379a0146104c6575b610438575b505050505080f35b7fe8a28da69c4125de1c3788bc550c6f2701729db1851e8dd4d37647d041f37b4b9483610486936040958651971687526064356020880152168486015260a0606086015260a08501916108f4565b7f556e6b6e6f776e206572726f7200000000000000000000000000000000000000602084830392836080870152600d815201520190a13880808080610430565b6104ce610933565b806104da575b5061042b565b905086906040519085871682526064356020830152858516604083015260a0606083015261050c60a0830189866108f4565b90828203608084015289815191828452815b83811061058557505092827fffffffffffffffffffffffffffffffffffffffffffffffffffffffffffffffe0601f847fe8a28da69c4125de1c3788bc550c6f2701729db1851e8dd4d37647d041f37b4b97602080978799010152011601030190a1386104d4565b60208282018101518683018201528d93500161051e565b50600487803e865160e01c610420565b94866106027f544cded0d654ac2718cc6eaf817cbd2a7b126ddbf477f4aecc7cd74c393685ce9a9599969460c099946105f46106249a6040519d8d8f9e8f90815201916108f4565b918b830360208d01526108f4565b95166040880152606435606088015216608086015284830360a08601526108f4565b0390a180f35b67ffffffffffffffff819c929c1161064657604052993861040b565b6024827f4e487b710000000000000000000000000000000000000000000000000000000081526041600452fd5b8a80fd5b90506020813d6020116106a1575b8161069260209383610884565b81010312610673575138610327565b3d9150610685565b6040513d8d823e3d90fd5b6020813d6020116106e8575b816106cd60209383610884565b810103126106735751801515036106e457386102c1565b8980fd5b3d91506106c0565b8880fd5b8780fd5b8480fd5b8280fd5b5080fd5b50346100be57806003193601126100be5773ffffffffffffffffffffffffffffffffffffffff6020915416604051908152f35b50346100be57806003193601126100be57602060405173ffffffffffffffffffffffffffffffffffffffff7f0000000000000000000000000000000000000000000000000000000000000000168152f35b50346100be57806003193601126100be576107a16109a5565b8073ffffffffffffffffffffffffffffffffffffffff81547fffffffffffffffffffffffff000000000000000000000000000000000000000081168355167f8be0079c531659141344cd1fd0a4f28419497f9722a3daafe3b4186f6b6457e08280a380f35b90503461070057816003193601126107005760209073ffffffffffffffffffffffffffffffffffffffff7f0000000000000000000000000000000000000000000000000000000000000000168152f35b9181601f840112156101885782359167ffffffffffffffff8311610188576020838186019501011161018857565b90601f7fffffffffffffffffffffffffffffffffffffffffffffffffffffffffffffffe0910116810190811067ffffffffffffffff8211176108c557604052565b7f4e487b7100000000000000000000000000000000000000000000000000000000600052604160045260246000fd5b601f82602094937fffffffffffffffffffffffffffffffffffffffffffffffffffffffffffffffe0938186528686013760008582860101520116010190565b600060443d106109915760405160031991823d016004833e815167ffffffffffffffff918282113d6024840111176109945781840194855193841161099c573d85010160208487010111610994575061099192910160200190610884565b90565b949350505050565b50949350505050565b73ffffffffffffffffffffffffffffffffffffffff6000541633036109c657565b60246040517f118cdaa7000000000000000000000000000000000000000000000000000000008152336004820152fdfea164736f6c6343000817000a","linkReferences":{}},"methodIdentifiers":{"cctpReceive(bytes,bytes,address,uint256,address,bytes)":"99903c83","messageTransmitter()":"7b04c181","mikiReceiver()":"0c68d0ef","owner()":"8da5cb5b","renounceOwnership()":"715018a6","token()":"fc0c546a","transferOwnership(address)":"f2fde38b"},"id":128}