{"abi":[{"type":"constructor","inputs":[{"name":"_initialOwner","type":"address","internalType":"address"},{"name":"_tokenMessenger","type":"address","internalType":"address"},{"name":"_token","type":"address","internalType":"address"}],"stateMutability":"nonpayable"},{"type":"function","name":"domains","inputs":[{"name":"chainId","type":"uint256","internalType":"uint256"}],"outputs":[{"name":"domain","type":"uint32","internalType":"uint32"}],"stateMutability":"view"},{"type":"function","name":"estimateFee","inputs":[{"name":"sender","type":"address","internalType":"address"},{"name":"dstChainId","type":"uint256","internalType":"uint256"},{"name":"recipient","type":"address","internalType":"address"},{"name":"asset","type":"address","internalType":"address"},{"name":"message","type":"bytes","internalType":"bytes"},{"name":"amount","type":"uint256","internalType":"uint256"},{"name":"params","type":"bytes","internalType":"bytes"}],"outputs":[{"name":"","type":"uint256","internalType":"uint256"}],"stateMutability":"view"},{"type":"function","name":"execCrossChainContractCall","inputs":[{"name":"sender","type":"address","internalType":"address"},{"name":"dstChainId","type":"uint256","internalType":"uint256"},{"name":"recipient","type":"address","internalType":"address"},{"name":"message","type":"bytes","internalType":"bytes"},{"name":"fee","type":"uint256","internalType":"uint256"},{"name":"params","type":"bytes","internalType":"bytes"}],"outputs":[],"stateMutability":"payable"},{"type":"function","name":"execCrossChainContractCallWithAsset","inputs":[{"name":"sender","type":"address","internalType":"address"},{"name":"dstChainId","type":"uint256","internalType":"uint256"},{"name":"recipient","type":"address","internalType":"address"},{"name":"asset","type":"address","internalType":"address"},{"name":"message","type":"bytes","internalType":"bytes"},{"name":"fee","type":"uint256","internalType":"uint256"},{"name":"amount","type":"uint256","internalType":"uint256"},{"name":"params","type":"bytes","internalType":"bytes"}],"outputs":[],"stateMutability":"payable"},{"type":"function","name":"execCrossChainTransferAsset","inputs":[{"name":"sender","type":"address","internalType":"address"},{"name":"dstChainId","type":"uint256","internalType":"uint256"},{"name":"recipient","type":"address","internalType":"address"},{"name":"asset","type":"address","internalType":"address"},{"name":"amount","type":"uint256","internalType":"uint256"},{"name":"fee","type":"uint256","internalType":"uint256"},{"name":"params","type":"bytes","internalType":"bytes"}],"outputs":[],"stateMutability":"payable"},{"type":"function","name":"mintRecipients","inputs":[{"name":"domain","type":"uint32","internalType":"uint32"}],"outputs":[{"name":"recipient","type":"address","internalType":"address"}],"stateMutability":"view"},{"type":"function","name":"owner","inputs":[],"outputs":[{"name":"","type":"address","internalType":"address"}],"stateMutability":"view"},{"type":"function","name":"renounceOwnership","inputs":[],"outputs":[],"stateMutability":"nonpayable"},{"type":"function","name":"setChainIdsToDomains","inputs":[{"name":"_chainIds","type":"uint256[]","internalType":"uint256[]"},{"name":"_domains","type":"uint32[]","internalType":"uint32[]"}],"outputs":[],"stateMutability":"nonpayable"},{"type":"function","name":"setMintRecipients","inputs":[{"name":"_domains","type":"uint32[]","internalType":"uint32[]"},{"name":"_recipients","type":"address[]","internalType":"address[]"}],"outputs":[],"stateMutability":"nonpayable"},{"type":"function","name":"token","inputs":[],"outputs":[{"name":"","type":"address","internalType":"contract IERC20"}],"stateMutability":"view"},{"type":"function","name":"tokenMessenger","inputs":[],"outputs":[{"name":"","type":"address","internalType":"contract ITokenMessenger"}],"stateMutability":"view"},{"type":"function","name":"transferOwnership","inputs":[{"name":"newOwner","type":"address","internalType":"address"}],"outputs":[],"stateMutability":"nonpayable"},{"type":"event","name":"CCTPSend","inputs":[{"name":"sender","type":"address","indexed":true,"internalType":"address"},{"name":"dstChainId","type":"uint256","indexed":false,"internalType":"uint256"},{"name":"recipient","type":"address","indexed":true,"internalType":"address"}],"anonymous":false},{"type":"event","name":"DepositForBurn","inputs":[{"name":"sender","type":"address","indexed":true,"internalType":"address"},{"name":"domain","type":"uint32","indexed":true,"internalType":"uint32"}],"anonymous":false},{"type":"event","name":"OwnershipTransferred","inputs":[{"name":"previousOwner","type":"address","indexed":true,"internalType":"address"},{"name":"newOwner","type":"address","indexed":true,"internalType":"address"}],"anonymous":false},{"type":"event","name":"SetChainId","inputs":[{"name":"chainId","type":"uint256","indexed":false,"internalType":"uint256"},{"name":"chainIdUint16","type":"uint16","indexed":false,"internalType":"uint16"}],"anonymous":false},{"type":"error","name":"AddressEmptyCode","inputs":[{"name":"target","type":"address","internalType":"address"}]},{"type":"error","name":"AddressInsufficientBalance","inputs":[{"name":"account","type":"address","internalType":"address"}]},{"type":"error","name":"FailedInnerCall","inputs":[]},{"type":"error","name":"InvalidLength","inputs":[]},{"type":"error","name":"MismatchLength","inputs":[]},{"type":"error","name":"MismatchedLength","inputs":[]},{"type":"error","name":"NotSupportedNetwork","inputs":[]},{"type":"error","name":"NotSupportedToken","inputs":[]},{"type":"error","name":"OwnableInvalidOwner","inputs":[{"name":"owner","type":"address","internalType":"address"}]},{"type":"error","name":"OwnableUnauthorizedAccount","inputs":[{"name":"account","type":"address","internalType":"address"}]},{"type":"error","name":"SafeERC20FailedOperation","inputs":[{"name":"token","type":"address","internalType":"address"}]}],"bytecode":{"object":"0x60c0346200029457601f620011b238819003918201601f1916830191906001600160401b038311848410176200029957816060928592604095865283398101031262000294576200005082620002cf565b6020906200006e836200006660208701620002cf565b9501620002cf565b6001600160a01b039182169485156200027c57600080546001600160a01b0319811688178255909684929183167f8be0079c531659141344cd1fd0a4f28419497f9722a3daafe3b4186f6b6457e08980a3166080521660a052620000d1620002af565b6006815260c036602083013762aa36a7620000ec82620002e4565b5261a869620000fb8262000308565b5262aa37dc6200010b8262000319565b5262066eee6200011b826200032a565b5262014a346200012b826200033b565b52620138826200013b826200034c565b5262000146620002af565b936006855260c0366020870137806200015f86620002e4565b526001926001620001708762000308565b526002906002620001818862000319565b5260036200018f886200032a565b5260066200019d886200033b565b526007620001ab886200034c565b52835115801562000272575b62000261578351875103620002505784959683955b62000200575b8751610e3f90816200037382396080518181816106e40152610992015260a05181818160df01526105e90152f35b84518610156200024a57868663ffffffff6200021e8399856200035d565b51166200022c82896200035d565b5187528585528a87209063ffffffff198254161790550195620001cc565b620001d2565b855163c21aaef960e01b8152600490fd5b855163251f56a160e21b8152600490fd5b50865115620001b7565b8451631e4fbdf760e01b815260006004820152602490fd5b600080fd5b634e487b7160e01b600052604160045260246000fd5b6040519060e082016001600160401b038111838210176200029957604052565b51906001600160a01b03821682036200029457565b805115620002f25760200190565b634e487b7160e01b600052603260045260246000fd5b805160011015620002f25760400190565b805160021015620002f25760600190565b805160031015620002f25760800190565b805160041015620002f25760a00190565b805160051015620002f25760c00190565b8051821015620002f25760209160051b01019056fe608060408181526004918236101561001657600080fd5b600092833560e01c9182632473dc5114610ae55750816324c01223146109b6578163461178301461096557816355f1f9391461057957816366cf8fab1461054b578163715018a6146104ca5781638da5cb5b1461049757816393702b84146102e1578163c09cea9814610295578163c7a86fcd1461023c578163cd0839f4146101d0578163f2fde38b14610107575063fc0c546a146100b457600080fd5b346101035781600319360112610103576020905173ffffffffffffffffffffffffffffffffffffffff7f0000000000000000000000000000000000000000000000000000000000000000168152f35b5080fd5b9050346101cc5760206003193601126101cc57610122610b55565b9061012b610cfe565b73ffffffffffffffffffffffffffffffffffffffff80921692831561019d5750508254827fffffffffffffffffffffffff00000000000000000000000000000000000000008216178455167f8be0079c531659141344cd1fd0a4f28419497f9722a3daafe3b4186f6b6457e08380a380f35b908460249251917f1e4fbdf7000000000000000000000000000000000000000000000000000000008352820152fd5b8280fd5b8390610100600319360112610103576101e7610b55565b506101f0610b7d565b506101f9610ba0565b5067ffffffffffffffff906084358281116102385761021b9036908301610bc3565b505060e4359182116101cc5761023391369101610bc3565b505080f35b8380fd5b839060c060031936011261010357610252610b55565b5061025b610b7d565b5067ffffffffffffffff906064358281116102385761027d9036908301610bc3565b505060a4359182116101cc5761023391369101610bc3565b9050346101cc5760206003193601126101cc573563ffffffff81168091036101cc57818373ffffffffffffffffffffffffffffffffffffffff9260209552600185522054169051908152f35b9050346101cc57816003193601126101cc5767ffffffffffffffff918135838111610493576103139036908401610c79565b91602435938411610493573660238501121561049357838101359061033782610c61565b9461034484519687610bf1565b8286526020926024602088019160051b8301019136831161048f57602401905b82821061045f57505050610376610cfe565b8351158015610456575b61042f5783518551036104085750845b8351811015610404578073ffffffffffffffffffffffffffffffffffffffff6103bb60019388610d4f565b511663ffffffff6103cc8388610d4f565b51168852828452848820907fffffffffffffffffffffffff000000000000000000000000000000000000000082541617905501610390565b8580f35b82517fc21aaef9000000000000000000000000000000000000000000000000000000008152fd5b82517f947d5a84000000000000000000000000000000000000000000000000000000008152fd5b50845115610380565b813573ffffffffffffffffffffffffffffffffffffffff8116810361048b578152908401908401610364565b8980fd5b8880fd5b8480fd5b50503461010357816003193601126101035773ffffffffffffffffffffffffffffffffffffffff60209254169051908152f35b83346105485780600319360112610548576104e3610cfe565b8073ffffffffffffffffffffffffffffffffffffffff81547fffffffffffffffffffffffff000000000000000000000000000000000000000081168355167f8be0079c531659141344cd1fd0a4f28419497f9722a3daafe3b4186f6b6457e08280a380f35b80fd5b9050346101cc5760206003193601126101cc578160209363ffffffff92358152600285522054169051908152f35b905060e06003193601126101cc5761058f610b55565b9160249182359261059e610b7d565b926105a7610ba0565b9167ffffffffffffffff9060843560c435838111610961576105cc9036908801610bc3565b505073ffffffffffffffffffffffffffffffffffffffff958695867f000000000000000000000000000000000000000000000000000000000000000016978891160361093a57845196602097888101907f23b872dd00000000000000000000000000000000000000000000000000000000825233868201523060448201528460648201526064815260a081018181108882111761090f578852518d9182919082855af13d15610903573d8681116108d8576106c7918e918951906106b78d7fffffffffffffffffffffffffffffffffffffffffffffffffffffffffffffffe0601f8401160183610bf1565b815280928c3d92013e5b83610d92565b8051908982151592836108bf575b505050610892578b90604489897f000000000000000000000000000000000000000000000000000000000000000016938951928380927f095ea7b30000000000000000000000000000000000000000000000000000000082528789830152898b830152865af1801561088657610859575b508a8d5260028952868d205463ffffffff16808e5260018a52878e2054891690811561083157928a9594928f926084958b51998a9889977f6fd3504e000000000000000000000000000000000000000000000000000000008952880152860152604485015260648401525af18015610827576107ef575b50507f4e0d31ee39096ca7e36c0748f839c77ff0937edc2e9b5d814b8bdb9e5402d0769382915195865216941692a380f35b8481813d8311610820575b6108048183610bf1565b8101031261048f57519081160361081c5738806107bd565b8680fd5b503d6107fa565b83513d8b823e3d90fd5b8489517f7ced6948000000000000000000000000000000000000000000000000000000008152fd5b610878908a3d8c1161087f575b6108708183610bf1565b810190610ce6565b5038610746565b503d610866565b8e8951903d90823e3d90fd5b85517f5274afe7000000000000000000000000000000000000000000000000000000008152918201529050fd5b6108cf9350820181019101610ce6565b153889816106d5565b858e6041867f4e487b7100000000000000000000000000000000000000000000000000000000835252fd5b6106c7906060906106c1565b868f6041877f4e487b7100000000000000000000000000000000000000000000000000000000835252fd5b84517fc8a08d6f000000000000000000000000000000000000000000000000000000008152fd5b8a80fd5b5050346101035781600319360112610103576020905173ffffffffffffffffffffffffffffffffffffffff7f0000000000000000000000000000000000000000000000000000000000000000168152f35b919050346101cc57806003193601126101cc5781359067ffffffffffffffff80831161049357366023840112156104935782840135906109f582610c61565b93610a0284519586610bf1565b8285526020926024602087019160051b8301019136831161048f576024859101915b838310610ad55750505050602435908111610ad157610a469036908601610c79565b93610a4f610cfe565b8351158015610ac8575b61042f5783518551036104085750845b8351811015610404578063ffffffff610a8460019388610d4f565b5116610a908287610d4f565b51885260028452848820907fffffffffffffffffffffffffffffffffffffffffffffffffffffffff0000000082541617905501610a69565b50845115610a59565b8580fd5b8235815291810191859101610a24565b8491346101cc5760e06003193601126101cc57610b00610b55565b50610b09610b7d565b50610b12610ba0565b5067ffffffffffffffff60843581811161049357610b339036908401610bc3565b505060c4359081116102385760209391610b4f91369101610bc3565b50508152f35b6004359073ffffffffffffffffffffffffffffffffffffffff82168203610b7857565b600080fd5b6044359073ffffffffffffffffffffffffffffffffffffffff82168203610b7857565b6064359073ffffffffffffffffffffffffffffffffffffffff82168203610b7857565b9181601f84011215610b785782359167ffffffffffffffff8311610b785760208381860195010111610b7857565b90601f7fffffffffffffffffffffffffffffffffffffffffffffffffffffffffffffffe0910116810190811067ffffffffffffffff821117610c3257604052565b7f4e487b7100000000000000000000000000000000000000000000000000000000600052604160045260246000fd5b67ffffffffffffffff8111610c325760051b60200190565b9080601f83011215610b78576020908235610c9381610c61565b93610ca16040519586610bf1565b81855260208086019260051b820101928311610b7857602001905b828210610cca575050505090565b813563ffffffff81168103610b78578152908301908301610cbc565b90816020910312610b7857518015158103610b785790565b73ffffffffffffffffffffffffffffffffffffffff600054163303610d1f57565b60246040517f118cdaa7000000000000000000000000000000000000000000000000000000008152336004820152fd5b8051821015610d635760209160051b010190565b7f4e487b7100000000000000000000000000000000000000000000000000000000600052603260045260246000fd5b90610dd15750805115610da757805190602001fd5b60046040517f1425ea42000000000000000000000000000000000000000000000000000000008152fd5b81511580610e29575b610de2575090565b60249073ffffffffffffffffffffffffffffffffffffffff604051917f9996b315000000000000000000000000000000000000000000000000000000008352166004820152fd5b50803b15610dda56fea164736f6c6343000817000a","linkReferences":{}},"methodIdentifiers":{"domains(uint256)":"66cf8fab","estimateFee(address,uint256,address,address,bytes,uint256,bytes)":"2473dc51","execCrossChainContractCall(address,uint256,address,bytes,uint256,bytes)":"c7a86fcd","execCrossChainContractCallWithAsset(address,uint256,address,address,bytes,uint256,uint256,bytes)":"cd0839f4","execCrossChainTransferAsset(address,uint256,address,address,uint256,uint256,bytes)":"55f1f939","mintRecipients(uint32)":"c09cea98","owner()":"8da5cb5b","renounceOwnership()":"715018a6","setChainIdsToDomains(uint256[],uint32[])":"24c01223","setMintRecipients(uint32[],address[])":"93702b84","token()":"fc0c546a","tokenMessenger()":"46117830","transferOwnership(address)":"f2fde38b"},"id":127}